{
  "_format": "hh-sol-artifact-1",
  "contractName": "PaymentContract",
  "sourceName": "contracts/PaymentContract.sol",
  "abi": [
    {
      "inputs": [],
      "stateMutability": "nonpayable",
      "type": "constructor"
    },
    {
      "anonymous": false,
      "inputs": [
        {
          "indexed": true,
          "internalType": "address",
          "name": "from",
          "type": "address"
        },
        {
          "indexed": false,
          "internalType": "uint256",
          "name": "amount",
          "type": "uint256"
        },
        {
          "indexed": false,
          "internalType": "string",
          "name": "orderId",
          "type": "string"
        }
      ],
      "name": "PaymentReceived",
      "type": "event"
    },
    {
      "inputs": [],
      "name": "getBalance",
      "outputs": [
        {
          "internalType": "uint256",
          "name": "",
          "type": "uint256"
        }
      ],
      "stateMutability": "view",
      "type": "function"
    },
    {
      "inputs": [],
      "name": "owner",
      "outputs": [
        {
          "internalType": "address",
          "name": "",
          "type": "address"
        }
      ],
      "stateMutability": "view",
      "type": "function"
    },
    {
      "inputs": [
        {
          "internalType": "string",
          "name": "orderId",
          "type": "string"
        }
      ],
      "name": "processPayment",
      "outputs": [],
      "stateMutability": "payable",
      "type": "function"
    },
    {
      "inputs": [],
      "name": "withdraw",
      "outputs": [],
      "stateMutability": "nonpayable",
      "type": "function"
    }
  ],
  "bytecode": "0x608060405234801561001057600080fd5b50600080546001600160a01b0319163317905561034b806100326000396000f3fe60806040526004361061003f5760003560e01c806312065fe0146100445780633ccfd60b146100645780638da5cb5b1461007b578063b7655d70146100b3575b600080fd5b34801561005057600080fd5b506040514781526020015b60405180910390f35b34801561007057600080fd5b506100796100c6565b005b34801561008757600080fd5b5060005461009b906001600160a01b031681565b6040516001600160a01b03909116815260200161005b565b6100796100c136600461020e565b610162565b6000546001600160a01b031633146101255760405162461bcd60e51b815260206004820152601760248201527f4f6e6c79206f776e65722063616e20776974686472617700000000000000000060448201526064015b60405180910390fd5b600080546040516001600160a01b03909116914780156108fc02929091818181858888f1935050505015801561015f573d6000803e3d6000fd5b50565b600034116101b25760405162461bcd60e51b815260206004820152601e60248201527f5061796d656e74206d7573742062652067726561746572207468616e20300000604482015260640161011c565b336001600160a01b03167f8dfc1109af223bb7f4e48f38a8a7631f492f0106b90747a651bf181b0fc4e40234836040516101ed9291906102bf565b60405180910390a250565b634e487b7160e01b600052604160045260246000fd5b60006020828403121561022057600080fd5b813567ffffffffffffffff8082111561023857600080fd5b818401915084601f83011261024c57600080fd5b81358181111561025e5761025e6101f8565b604051601f8201601f19908116603f01168101908382118183101715610286576102866101f8565b8160405282815287602084870101111561029f57600080fd5b826020860160208301376000928101602001929092525095945050505050565b82815260006020604081840152835180604085015260005b818110156102f3578581018301518582016060015282016102d7565b506000606082860101526060601f19601f83011685010192505050939250505056fea2646970667358221220a47c6320a1d22bf52697c9f2e8393ddbd0a57529529bfcd1d25d67ad7995969664736f6c63430008140033",
  "linkReferences": {},
  "deployedLinkReferences": {}
}