{
  "_format": "hh-sol-artifact-1",
  "contractName": "EcommercePayment",
  "sourceName": "contracts/EcommercePayment.sol",
  "abi": [
    {
      "inputs": [],
      "stateMutability": "nonpayable",
      "type": "constructor"
    },
    {
      "anonymous": false,
      "inputs": [
        {
          "indexed": true,
          "internalType": "uint256",
          "name": "orderId",
          "type": "uint256"
        },
        {
          "indexed": true,
          "internalType": "address",
          "name": "buyer",
          "type": "address"
        }
      ],
      "name": "OrderCancelled",
      "type": "event"
    },
    {
      "anonymous": false,
      "inputs": [
        {
          "indexed": true,
          "internalType": "uint256",
          "name": "orderId",
          "type": "uint256"
        },
        {
          "indexed": true,
          "internalType": "address",
          "name": "buyer",
          "type": "address"
        }
      ],
      "name": "OrderCompleted",
      "type": "event"
    },
    {
      "anonymous": false,
      "inputs": [
        {
          "indexed": true,
          "internalType": "uint256",
          "name": "orderId",
          "type": "uint256"
        },
        {
          "indexed": true,
          "internalType": "address",
          "name": "buyer",
          "type": "address"
        },
        {
          "indexed": false,
          "internalType": "uint256",
          "name": "amount",
          "type": "uint256"
        },
        {
          "indexed": false,
          "internalType": "uint256",
          "name": "timestamp",
          "type": "uint256"
        }
      ],
      "name": "OrderCreated",
      "type": "event"
    },
    {
      "anonymous": false,
      "inputs": [
        {
          "indexed": true,
          "internalType": "uint256",
          "name": "orderId",
          "type": "uint256"
        },
        {
          "indexed": true,
          "internalType": "address",
          "name": "buyer",
          "type": "address"
        },
        {
          "indexed": false,
          "internalType": "uint256",
          "name": "amount",
          "type": "uint256"
        }
      ],
      "name": "OrderRefunded",
      "type": "event"
    },
    {
      "anonymous": false,
      "inputs": [
        {
          "indexed": true,
          "internalType": "address",
          "name": "owner",
          "type": "address"
        },
        {
          "indexed": false,
          "internalType": "uint256",
          "name": "amount",
          "type": "uint256"
        }
      ],
      "name": "Withdrawal",
      "type": "event"
    },
    {
      "inputs": [
        {
          "internalType": "uint256",
          "name": "_orderId",
          "type": "uint256"
        }
      ],
      "name": "cancelOrder",
      "outputs": [],
      "stateMutability": "nonpayable",
      "type": "function"
    },
    {
      "inputs": [
        {
          "internalType": "uint256",
          "name": "_orderId",
          "type": "uint256"
        }
      ],
      "name": "completeOrder",
      "outputs": [],
      "stateMutability": "nonpayable",
      "type": "function"
    },
    {
      "inputs": [
        {
          "internalType": "string[]",
          "name": "_productIds",
          "type": "string[]"
        }
      ],
      "name": "createOrder",
      "outputs": [
        {
          "internalType": "uint256",
          "name": "",
          "type": "uint256"
        }
      ],
      "stateMutability": "payable",
      "type": "function"
    },
    {
      "inputs": [],
      "name": "getContractBalance",
      "outputs": [
        {
          "internalType": "uint256",
          "name": "",
          "type": "uint256"
        }
      ],
      "stateMutability": "view",
      "type": "function"
    },
    {
      "inputs": [
        {
          "internalType": "uint256",
          "name": "_orderId",
          "type": "uint256"
        }
      ],
      "name": "getOrder",
      "outputs": [
        {
          "internalType": "uint256",
          "name": "orderId",
          "type": "uint256"
        },
        {
          "internalType": "address",
          "name": "buyer",
          "type": "address"
        },
        {
          "internalType": "uint256",
          "name": "amount",
          "type": "uint256"
        },
        {
          "internalType": "string[]",
          "name": "productIds",
          "type": "string[]"
        },
        {
          "internalType": "uint256",
          "name": "timestamp",
          "type": "uint256"
        },
        {
          "internalType": "enum EcommercePayment.OrderStatus",
          "name": "status",
          "type": "uint8"
        }
      ],
      "stateMutability": "view",
      "type": "function"
    },
    {
      "inputs": [
        {
          "internalType": "address",
          "name": "_user",
          "type": "address"
        }
      ],
      "name": "getUserOrders",
      "outputs": [
        {
          "internalType": "uint256[]",
          "name": "",
          "type": "uint256[]"
        }
      ],
      "stateMutability": "view",
      "type": "function"
    },
    {
      "inputs": [],
      "name": "orderCount",
      "outputs": [
        {
          "internalType": "uint256",
          "name": "",
          "type": "uint256"
        }
      ],
      "stateMutability": "view",
      "type": "function"
    },
    {
      "inputs": [
        {
          "internalType": "uint256",
          "name": "",
          "type": "uint256"
        }
      ],
      "name": "orders",
      "outputs": [
        {
          "internalType": "uint256",
          "name": "orderId",
          "type": "uint256"
        },
        {
          "internalType": "address",
          "name": "buyer",
          "type": "address"
        },
        {
          "internalType": "uint256",
          "name": "amount",
          "type": "uint256"
        },
        {
          "internalType": "uint256",
          "name": "timestamp",
          "type": "uint256"
        },
        {
          "internalType": "enum EcommercePayment.OrderStatus",
          "name": "status",
          "type": "uint8"
        }
      ],
      "stateMutability": "view",
      "type": "function"
    },
    {
      "inputs": [],
      "name": "owner",
      "outputs": [
        {
          "internalType": "address",
          "name": "",
          "type": "address"
        }
      ],
      "stateMutability": "view",
      "type": "function"
    },
    {
      "inputs": [
        {
          "internalType": "uint256",
          "name": "_orderId",
          "type": "uint256"
        }
      ],
      "name": "refundOrder",
      "outputs": [],
      "stateMutability": "nonpayable",
      "type": "function"
    },
    {
      "inputs": [
        {
          "internalType": "address",
          "name": "newOwner",
          "type": "address"
        }
      ],
      "name": "transferOwnership",
      "outputs": [],
      "stateMutability": "nonpayable",
      "type": "function"
    },
    {
      "inputs": [
        {
          "internalType": "address",
          "name": "",
          "type": "address"
        },
        {
          "internalType": "uint256",
          "name": "",
          "type": "uint256"
        }
      ],
      "name": "userOrders",
      "outputs": [
        {
          "internalType": "uint256",
          "name": "",
          "type": "uint256"
        }
      ],
      "stateMutability": "view",
      "type": "function"
    },
    {
      "inputs": [
        {
          "internalType": "uint256",
          "name": "_amount",
          "type": "uint256"
        }
      ],
      "name": "withdraw",
      "outputs": [],
      "stateMutability": "nonpayable",
      "type": "function"
    },
    {
      "inputs": [],
      "name": "withdrawAll",
      "outputs": [],
      "stateMutability": "nonpayable",
      "type": "function"
    }
  ],
  "bytecode": "0x608060405234801561001057600080fd5b50600080546001600160a01b031916331781556001556113b9806100356000396000f3fe6080604052600436106100dd5760003560e01c80638da5cb5b1161007f578063b6adaaff11610059578063b6adaaff14610274578063c018c45714610294578063d09ef241146102b4578063f2fde38b146102e657600080fd5b80638da5cb5b146101c2578063a3c79abb146101fa578063a85c38ef1461020d57600080fd5b806363c69f08116100bb57806363c69f081461014d5780636f9fb98a1461017a578063853828b61461018d578063856652e9146101a257600080fd5b80632453ffa8146100e25780632e1a7d4d1461010b578063514fcac71461012d575b600080fd5b3480156100ee57600080fd5b506100f860015481565b6040519081526020015b60405180910390f35b34801561011757600080fd5b5061012b610126366004610e4a565b610306565b005b34801561013957600080fd5b5061012b610148366004610e4a565b6103ff565b34801561015957600080fd5b5061016d610168366004610e7f565b610580565b6040516101029190610ea1565b34801561018657600080fd5b50476100f8565b34801561019957600080fd5b5061012b6105ec565b3480156101ae57600080fd5b506100f86101bd366004610ee5565b61065d565b3480156101ce57600080fd5b506000546101e2906001600160a01b031681565b6040516001600160a01b039091168152602001610102565b6100f8610208366004610f56565b61068e565b34801561021957600080fd5b50610263610228366004610e4a565b60026020819052600091825260409091208054600182015492820154600483015460059093015491936001600160a01b031692909160ff1685565b6040516101029594939291906110a7565b34801561028057600080fd5b5061012b61028f366004610e4a565b610879565b3480156102a057600080fd5b5061012b6102af366004610e4a565b610995565b3480156102c057600080fd5b506102d46102cf366004610e4a565b610b3e565b604051610102969594939291906110e2565b3480156102f257600080fd5b5061012b610301366004610e7f565b610cf1565b6000546001600160a01b031633146103395760405162461bcd60e51b8152600401610330906111a8565b60405180910390fd5b478111156103805760405162461bcd60e51b8152602060048201526014602482015273496e73756666696369656e742062616c616e636560601b6044820152606401610330565b600080546040516001600160a01b039091169183156108fc02918491818181858888f193505050501580156103b9573d6000803e3d6000fd5b506000546040518281526001600160a01b03909116907f7fcf532c15f0a6db0bd6d0e038bea71d30d808c7d98cb3bf7268a95bf5081b659060200160405180910390a250565b60008111801561041157506001548111155b61042d5760405162461bcd60e51b8152600401610330906111e9565b6000818152600260205260409020600101546001600160a01b0316331461048e5760405162461bcd60e51b815260206004820152601560248201527413db9b1e48189d5e595c8818d85b8818d85b98d95b605a1b6044820152606401610330565b60008181526002602052604081206005015460ff1660038111156104b4576104b461106f565b146105015760405162461bcd60e51b815260206004820152601e60248201527f43616e206f6e6c792063616e63656c2070656e64696e67206f726465727300006044820152606401610330565b600081815260026020819052604080832060058101805460ff1916600317905590910154905133926108fc831502929190818181858888f1935050505015801561054f573d6000803e3d6000fd5b50604051339082907fc0362da6f2ff36b382b34aec0814f6b3cdf89f5ef282a1d1f114d0c0b036d59690600090a350565b6001600160a01b0381166000908152600360209081526040918290208054835181840281018401909452808452606093928301828280156105e057602002820191906000526020600020905b8154815260200190600101908083116105cc575b50505050509050919050565b6000546001600160a01b031633146106165760405162461bcd60e51b8152600401610330906111a8565b47806103805760405162461bcd60e51b81526020600482015260166024820152754e6f2062616c616e636520746f20776974686472617760501b6044820152606401610330565b6003602052816000526040600020818154811061067957600080fd5b90600052602060002001600091509150505481565b60008034116106df5760405162461bcd60e51b815260206004820152601e60248201527f5061796d656e74206d7573742062652067726561746572207468616e203000006044820152606401610330565b60008251116107305760405162461bcd60e51b815260206004820152601e60248201527f4d7573742068617665206174206c65617374206f6e652070726f6475637400006044820152606401610330565b6001805490600061074083611213565b90915550506040805160c081018252600154815233602082015234918101919091526060810183905242608082015260a081016000905260018054600090815260026020818152604092839020855181558582015194810180546001600160a01b0319166001600160a01b03909616959095179094559184015190830155606083015180516107d59260038501920190610d85565b506080820151600482015560a082015160058201805460ff191660018360038111156108035761080361106f565b021790555050336000818152600360209081526040808320600180548254808301845592865294849020909101939093559154825134815242928101929092529293507ff7c110a6973307f2bc91245c2c06344ada13add2c1741e83ac5c0bb332bc85d5910160405180910390a3505060015490565b6000546001600160a01b031633146108a35760405162461bcd60e51b8152600401610330906111a8565b6000811180156108b557506001548111155b6108d15760405162461bcd60e51b8152600401610330906111e9565b60008181526002602052604081206005015460ff1660038111156108f7576108f761106f565b1461093b5760405162461bcd60e51b81526020600482015260146024820152734f72646572206973206e6f742070656e64696e6760601b6044820152606401610330565b60008181526002602052604080822060058101805460ff19166001908117909155015490516001600160a01b039091169183917f19800bcb0ac4476f8c5dc58e76aa820026d28a52f87da5213e57d16b75ae0de99190a350565b6000546001600160a01b031633146109bf5760405162461bcd60e51b8152600401610330906111a8565b6000811180156109d157506001548111155b6109ed5760405162461bcd60e51b8152600401610330906111e9565b60008181526002602052604081206005015460ff166003811115610a1357610a1361106f565b1480610a445750600160008281526002602052604090206005015460ff166003811115610a4257610a4261106f565b145b610a905760405162461bcd60e51b815260206004820152601860248201527f43616e6e6f7420726566756e642074686973206f7264657200000000000000006044820152606401610330565b600081815260026020819052604080832060058101805460ff191684179055600181015492810154915190936001600160a01b03909316926108fc831502929190818181858888f19350505050158015610aee573d6000803e3d6000fd5b50600181015460028201546040519081526001600160a01b039091169083907fe18debf292fbfc1f009a15d4e4932c1da2be34d7343f86f50989d09a04571e1b9060200160405180910390a35050565b60008060006060600080600087118015610b5a57506001548711155b610b765760405162461bcd60e51b8152600401610330906111e9565b6000878152600260208181526040808420815160c0810183528154815260018201546001600160a01b0316818501529381015484830152600381018054835181860281018601909452808452919360608601939290879084015b82821015610c7c578382906000526020600020018054610bef9061123a565b80601f0160208091040260200160405190810160405280929190818152602001828054610c1b9061123a565b8015610c685780601f10610c3d57610100808354040283529160200191610c68565b820191906000526020600020905b815481529060010190602001808311610c4b57829003601f168201915b505050505081526020019060010190610bd0565b5050509082525060048201546020820152600582015460409091019060ff166003811115610cac57610cac61106f565b6003811115610cbd57610cbd61106f565b9052508051602082015160408301516060840151608085015160a090950151939d929c50909a509850919650945092505050565b6000546001600160a01b03163314610d1b5760405162461bcd60e51b8152600401610330906111a8565b6001600160a01b038116610d635760405162461bcd60e51b815260206004820152600f60248201526e496e76616c6964206164647265737360881b6044820152606401610330565b600080546001600160a01b0319166001600160a01b0392909216919091179055565b828054828255906000526020600020908101928215610dcb579160200282015b82811115610dcb5782518290610dbb90826112c3565b5091602001919060010190610da5565b50610dd7929150610ddb565b5090565b80821115610dd7576000610def8282610df8565b50600101610ddb565b508054610e049061123a565b6000825580601f10610e14575050565b601f016020900490600052602060002090810190610e329190610e35565b50565b5b80821115610dd75760008155600101610e36565b600060208284031215610e5c57600080fd5b5035919050565b80356001600160a01b0381168114610e7a57600080fd5b919050565b600060208284031215610e9157600080fd5b610e9a82610e63565b9392505050565b6020808252825182820181905260009190848201906040850190845b81811015610ed957835183529284019291840191600101610ebd565b50909695505050505050565b60008060408385031215610ef857600080fd5b610f0183610e63565b946020939093013593505050565b634e487b7160e01b600052604160045260246000fd5b604051601f8201601f1916810167ffffffffffffffff81118282101715610f4e57610f4e610f0f565b604052919050565b60006020808385031215610f6957600080fd5b823567ffffffffffffffff80821115610f8157600080fd5b8185019150601f8681840112610f9657600080fd5b823582811115610fa857610fa8610f0f565b8060051b610fb7868201610f25565b918252848101860191868101908a841115610fd157600080fd5b87870192505b8383101561106157823586811115610fef5760008081fd5b8701603f81018c136110015760008081fd5b8881013560408882111561101757611017610f0f565b611028828901601f19168c01610f25565b8281528e8284860101111561103d5760008081fd5b828285018d83013760009281018c0192909252508352509187019190870190610fd7565b9a9950505050505050505050565b634e487b7160e01b600052602160045260246000fd5b600481106110a357634e487b7160e01b600052602160045260246000fd5b9052565b8581526001600160a01b0385166020820152604081018490526060810183905260a081016110d86080830184611085565b9695505050505050565b600060c08201888352602060018060a01b0389168185015287604085015260c0606085015281875180845260e08601915060e08160051b87010193508289016000805b838110156111815788870360df1901855282518051808952835b8181101561115a578281018901518a82018a0152880161113f565b508881018801849052601f01601f1916909701860196509385019391850191600101611125565b50505050506080840186905250905061119d60a0830184611085565b979650505050505050565b60208082526021908201527f4f6e6c79206f776e65722063616e2063616c6c20746869732066756e6374696f6040820152603760f91b606082015260800190565b60208082526010908201526f125b9d985b1a59081bdc99195c88125160821b604082015260600190565b60006001820161123357634e487b7160e01b600052601160045260246000fd5b5060010190565b600181811c9082168061124e57607f821691505b60208210810361126e57634e487b7160e01b600052602260045260246000fd5b50919050565b601f8211156112be57600081815260208120601f850160051c8101602086101561129b5750805b601f850160051c820191505b818110156112ba578281556001016112a7565b5050505b505050565b815167ffffffffffffffff8111156112dd576112dd610f0f565b6112f1816112eb845461123a565b84611274565b602080601f831160018114611326576000841561130e5750858301515b600019600386901b1c1916600185901b1785556112ba565b600085815260208120601f198616915b8281101561135557888601518255948401946001909101908401611336565b50858210156113735787850151600019600388901b60f8161c191681555b5050505050600190811b0190555056fea26469706673582212202139f131606e8a0833bd9fde6bc71407021238b08d204b6070092fef9148a98764736f6c63430008140033",
  "linkReferences": {},
  "deployedLinkReferences": {}
}